{
  "_format": "hh-sol-artifact-1",
  "contractName": "Covid19",
  "sourceName": "contracts/Covid19.sol",
  "abi": [
    {
      "inputs": [
        {
          "internalType": "address",
          "name": "_priceFeed",
          "type": "address"
        }
      ],
      "stateMutability": "nonpayable",
      "type": "constructor"
    },
    {
      "inputs": [],
      "name": "InsufficientEth",
      "type": "error"
    },
    {
      "inputs": [],
      "name": "TransferFailed",
      "type": "error"
    },
    {
      "inputs": [],
      "name": "UnauthorizedCaller",
      "type": "error"
    },
    {
      "anonymous": false,
      "inputs": [
        {
          "indexed": false,
          "internalType": "string",
          "name": "_testName",
          "type": "string"
        },
        {
          "indexed": true,
          "internalType": "address",
          "name": "_from",
          "type": "address"
        },
        {
          "indexed": false,
          "internalType": "uint256",
          "name": "startTime",
          "type": "uint256"
        },
        {
          "indexed": false,
          "internalType": "uint256",
          "name": "endTime",
          "type": "uint256"
        },
        {
          "indexed": false,
          "internalType": "uint256",
          "name": "_amount",
          "type": "uint256"
        }
      ],
      "name": "userAppointment",
      "type": "event"
    },
    {
      "inputs": [
        {
          "internalType": "uint256",
          "name": "",
          "type": "uint256"
        }
      ],
      "name": "appointments",
      "outputs": [
        {
          "internalType": "string",
          "name": "testType",
          "type": "string"
        },
        {
          "internalType": "address",
          "name": "testee",
          "type": "address"
        },
        {
          "internalType": "uint256",
          "name": "startTime",
          "type": "uint256"
        },
        {
          "internalType": "uint256",
          "name": "endTime",
          "type": "uint256"
        },
        {
          "internalType": "uint256",
          "name": "ethPaid",
          "type": "uint256"
        }
      ],
      "stateMutability": "view",
      "type": "function"
    },
    {
      "inputs": [
        {
          "internalType": "uint256",
          "name": "_usdPrice",
          "type": "uint256"
        }
      ],
      "name": "changeUsdPrice",
      "outputs": [],
      "stateMutability": "nonpayable",
      "type": "function"
    },
    {
      "inputs": [
        {
          "internalType": "string",
          "name": "_testType",
          "type": "string"
        },
        {
          "internalType": "uint256",
          "name": "_startTime",
          "type": "uint256"
        },
        {
          "internalType": "uint256",
          "name": "_endTime",
          "type": "uint256"
        }
      ],
      "name": "createAppointment",
      "outputs": [],
      "stateMutability": "payable",
      "type": "function"
    },
    {
      "inputs": [],
      "name": "getAppointments",
      "outputs": [
        {
          "components": [
            {
              "internalType": "string",
              "name": "testType",
              "type": "string"
            },
            {
              "internalType": "address",
              "name": "testee",
              "type": "address"
            },
            {
              "internalType": "uint256",
              "name": "startTime",
              "type": "uint256"
            },
            {
              "internalType": "uint256",
              "name": "endTime",
              "type": "uint256"
            },
            {
              "internalType": "uint256",
              "name": "ethPaid",
              "type": "uint256"
            }
          ],
          "internalType": "struct Covid19.Appointment[]",
          "name": "",
          "type": "tuple[]"
        }
      ],
      "stateMutability": "view",
      "type": "function"
    },
    {
      "inputs": [],
      "name": "getBalance",
      "outputs": [
        {
          "internalType": "uint256",
          "name": "",
          "type": "uint256"
        }
      ],
      "stateMutability": "view",
      "type": "function"
    },
    {
      "inputs": [],
      "name": "getEthTestFee",
      "outputs": [
        {
          "internalType": "uint256",
          "name": "",
          "type": "uint256"
        }
      ],
      "stateMutability": "view",
      "type": "function"
    },
    {
      "inputs": [],
      "name": "owner",
      "outputs": [
        {
          "internalType": "address",
          "name": "",
          "type": "address"
        }
      ],
      "stateMutability": "view",
      "type": "function"
    },
    {
      "inputs": [],
      "name": "usdPrice",
      "outputs": [
        {
          "internalType": "uint256",
          "name": "",
          "type": "uint256"
        }
      ],
      "stateMutability": "view",
      "type": "function"
    },
    {
      "inputs": [],
      "name": "withdraw",
      "outputs": [],
      "stateMutability": "nonpayable",
      "type": "function"
    }
  ],
  "bytecode": "0x60806040523480156200001157600080fd5b506040516200131c3803806200131c8339818101604052810190620000379190620000d7565b80600260006101000a81548173ffffffffffffffffffffffffffffffffffffffff021916908373ffffffffffffffffffffffffffffffffffffffff16021790555033600160006101000a81548173ffffffffffffffffffffffffffffffffffffffff021916908373ffffffffffffffffffffffffffffffffffffffff1602179055505062000151565b600081519050620000d18162000137565b92915050565b600060208284031215620000ea57600080fd5b6000620000fa84828501620000c0565b91505092915050565b6000620001108262000117565b9050919050565b600073ffffffffffffffffffffffffffffffffffffffff82169050919050565b620001428162000103565b81146200014e57600080fd5b50565b6111bb80620001616000396000f3fe6080604052600436106100865760003560e01c806359c35bdf1161005957806359c35bdf146101375780636619aa861461015357806373dd3cc31461017e5780638da5cb5b146101a957806396b80d08146101d457610086565b806312065fe01461008b57806312dc9013146100b65780633ccfd60b146100f757806347c1f02c1461010e575b600080fd5b34801561009757600080fd5b506100a06101ff565b6040516100ad9190610e02565b60405180910390f35b3480156100c257600080fd5b506100dd60048036038101906100d89190610a9a565b61020c565b6040516100ee959493929190610d5c565b60405180910390f35b34801561010357600080fd5b5061010c6102fa565b005b34801561011a57600080fd5b5061013560048036038101906101309190610a9a565b610427565b005b610151600480360381019061014c9190610a33565b6104cb565b005b34801561015f57600080fd5b50610168610657565b6040516101759190610e02565b60405180910390f35b34801561018a57600080fd5b5061019361065d565b6040516101a09190610e02565b60405180910390f35b3480156101b557600080fd5b506101be610749565b6040516101cb9190610d1f565b60405180910390f35b3480156101e057600080fd5b506101e961076f565b6040516101f69190610d3a565b60405180910390f35b6000804790508091505090565b6003818154811061021c57600080fd5b906000526020600020906005020160009150905080600001805461023f9061100d565b80601f016020809104026020016040519081016040528092919081815260200182805461026b9061100d565b80156102b85780601f1061028d576101008083540402835291602001916102b8565b820191906000526020600020905b81548152906001019060200180831161029b57829003601f168201915b5050505050908060010160009054906101000a900473ffffffffffffffffffffffffffffffffffffffff16908060020154908060030154908060040154905085565b600160009054906101000a900473ffffffffffffffffffffffffffffffffffffffff1673ffffffffffffffffffffffffffffffffffffffff163373ffffffffffffffffffffffffffffffffffffffff1614610381576040517f5c427cd900000000000000000000000000000000000000000000000000000000815260040160405180910390fd5b60003373ffffffffffffffffffffffffffffffffffffffff16476040516103a790610d0a565b60006040518083038185875af1925050503d80600081146103e4576040519150601f19603f3d011682016040523d82523d6000602084013e6103e9565b606091505b5050905080610424576040517f90b8ec1800000000000000000000000000000000000000000000000000000000815260040160405180910390fd5b50565b600160009054906101000a900473ffffffffffffffffffffffffffffffffffffffff1673ffffffffffffffffffffffffffffffffffffffff163373ffffffffffffffffffffffffffffffffffffffff16146104ae576040517f5c427cd900000000000000000000000000000000000000000000000000000000815260040160405180910390fd5b670de0b6b3a7640000816104c29190610f15565b60008190555050565b6104d361065d565b34101561050c576040517fa01a9df600000000000000000000000000000000000000000000000000000000815260040160405180910390fd5b60006040518060a001604052808581526020013373ffffffffffffffffffffffffffffffffffffffff168152602001848152602001838152602001348152509050600381908060018154018082558091505060019003906000526020600020906005020160009091909190915060008201518160000190805190602001906105959291906108d4565b5060208201518160010160006101000a81548173ffffffffffffffffffffffffffffffffffffffff021916908373ffffffffffffffffffffffffffffffffffffffff16021790555060408201518160020155606082015181600301556080820151816004015550503373ffffffffffffffffffffffffffffffffffffffff167f31cd323991169b1d99bcdc0640abd8f46ac8b887b5aa78b0a8e48e585a4ba441858585346040516106499493929190610db6565b60405180910390a250505050565b60005481565b600080600260009054906101000a900473ffffffffffffffffffffffffffffffffffffffff1673ffffffffffffffffffffffffffffffffffffffff1663feaf968c6040518163ffffffff1660e01b815260040160a06040518083038186803b1580156106c857600080fd5b505afa1580156106dc573d6000803e3d6000fd5b505050506040513d601f19601f820116820180604052508101906107009190610ac3565b50505091505060006402540be400826107199190610f15565b9050600081670de0b6b3a76400006000546107349190610f15565b61073e9190610ee4565b905080935050505090565b600160009054906101000a900473ffffffffffffffffffffffffffffffffffffffff1681565b60606003805480602002602001604051908101604052809291908181526020016000905b828210156108cb57838290600052602060002090600502016040518060a00160405290816000820180546107c69061100d565b80601f01602080910402602001604051908101604052809291908181526020018280546107f29061100d565b801561083f5780601f106108145761010080835404028352916020019161083f565b820191906000526020600020905b81548152906001019060200180831161082257829003601f168201915b505050505081526020016001820160009054906101000a900473ffffffffffffffffffffffffffffffffffffffff1673ffffffffffffffffffffffffffffffffffffffff1673ffffffffffffffffffffffffffffffffffffffff168152602001600282015481526020016003820154815260200160048201548152505081526020019060010190610793565b50505050905090565b8280546108e09061100d565b90600052602060002090601f0160209004810192826109025760008555610949565b82601f1061091b57805160ff1916838001178555610949565b82800160010185558215610949579182015b8281111561094857825182559160200191906001019061092d565b5b509050610956919061095a565b5090565b5b8082111561097357600081600090555060010161095b565b5090565b600061098a61098584610e42565b610e1d565b9050828152602081018484840111156109a257600080fd5b6109ad848285610fcb565b509392505050565b6000815190506109c481611140565b92915050565b600082601f8301126109db57600080fd5b81356109eb848260208601610977565b91505092915050565b600081359050610a0381611157565b92915050565b600081519050610a1881611157565b92915050565b600081519050610a2d8161116e565b92915050565b600080600060608486031215610a4857600080fd5b600084013567ffffffffffffffff811115610a6257600080fd5b610a6e868287016109ca565b9350506020610a7f868287016109f4565b9250506040610a90868287016109f4565b9150509250925092565b600060208284031215610aac57600080fd5b6000610aba848285016109f4565b91505092915050565b600080600080600060a08688031215610adb57600080fd5b6000610ae988828901610a1e565b9550506020610afa888289016109b5565b9450506040610b0b88828901610a09565b9350506060610b1c88828901610a09565b9250506080610b2d88828901610a1e565b9150509295509295909350565b6000610b468383610c76565b905092915050565b610b5781610f6f565b82525050565b610b6681610f6f565b82525050565b6000610b7782610e83565b610b818185610ea6565b935083602082028501610b9385610e73565b8060005b85811015610bcf5784840389528151610bb08582610b3a565b9450610bbb83610e99565b925060208a01995050600181019050610b97565b50829750879550505050505092915050565b6000610bec82610e8e565b610bf68185610ec2565b9350610c06818560208601610fda565b610c0f8161112c565b840191505092915050565b6000610c2582610e8e565b610c2f8185610ed3565b9350610c3f818560208601610fda565b610c488161112c565b840191505092915050565b6000610c60600083610eb7565b9150610c6b8261113d565b600082019050919050565b600060a0830160008301518482036000860152610c938282610be1565b9150506020830151610ca86020860182610b4e565b506040830151610cbb6040860182610cec565b506060830151610cce6060860182610cec565b506080830151610ce16080860182610cec565b508091505092915050565b610cf581610fab565b82525050565b610d0481610fab565b82525050565b6000610d1582610c53565b9150819050919050565b6000602082019050610d346000830184610b5d565b92915050565b60006020820190508181036000830152610d548184610b6c565b905092915050565b600060a0820190508181036000830152610d768188610c1a565b9050610d856020830187610b5d565b610d926040830186610cfb565b610d9f6060830185610cfb565b610dac6080830184610cfb565b9695505050505050565b60006080820190508181036000830152610dd08187610c1a565b9050610ddf6020830186610cfb565b610dec6040830185610cfb565b610df96060830184610cfb565b95945050505050565b6000602082019050610e176000830184610cfb565b92915050565b6000610e27610e38565b9050610e33828261103f565b919050565b6000604051905090565b600067ffffffffffffffff821115610e5d57610e5c6110fd565b5b610e668261112c565b9050602081019050919050565b6000819050602082019050919050565b600081519050919050565b600081519050919050565b6000602082019050919050565b600082825260208201905092915050565b600081905092915050565b600082825260208201905092915050565b600082825260208201905092915050565b6000610eef82610fab565b9150610efa83610fab565b925082610f0a57610f0961109f565b5b828204905092915050565b6000610f2082610fab565b9150610f2b83610fab565b9250817fffffffffffffffffffffffffffffffffffffffffffffffffffffffffffffffff0483118215151615610f6457610f63611070565b5b828202905092915050565b6000610f7a82610f8b565b9050919050565b6000819050919050565b600073ffffffffffffffffffffffffffffffffffffffff82169050919050565b6000819050919050565b600069ffffffffffffffffffff82169050919050565b82818337600083830152505050565b60005b83811015610ff8578082015181840152602081019050610fdd565b83811115611007576000848401525b50505050565b6000600282049050600182168061102557607f821691505b60208210811415611039576110386110ce565b5b50919050565b6110488261112c565b810181811067ffffffffffffffff82111715611067576110666110fd565b5b80604052505050565b7f4e487b7100000000000000000000000000000000000000000000000000000000600052601160045260246000fd5b7f4e487b7100000000000000000000000000000000000000000000000000000000600052601260045260246000fd5b7f4e487b7100000000000000000000000000000000000000000000000000000000600052602260045260246000fd5b7f4e487b7100000000000000000000000000000000000000000000000000000000600052604160045260246000fd5b6000601f19601f8301169050919050565b50565b61114981610f81565b811461115457600080fd5b50565b61116081610fab565b811461116b57600080fd5b50565b61117781610fb5565b811461118257600080fd5b5056fea2646970667358221220a16c42f7c40c0f4557a49108eaf0d08280d6ac03bab8c754f3987e9a5e83cf0e64736f6c63430008040033",
  "linkReferences": {},
  "deployedLinkReferences": {}
}